:100000000C946C000C9476000C9476000C947600A2
:100010000C9476000C9476000C9476000C94760088
:100020000C9476000C9476000C9476000C94760078
:100030000C9476000C9476000C9476000C94760068
:100040000C9476000C9476000C9476000C94760058
:100050000C9476000C9476000C9476000C94760048
:100060000C9476000C9476008501C400CB00D4007B
:10007000DD00E6008D018D013E014701EF00F80033
:1000800001010A0111011A0123012C0135018D0121
:100090008D018D015001580161016A0173017C01DC
:1000A000590298019F01A801B101BA0161026102E0
:1000B00012021B02C301CC01D501DE01E501EE01F4
:1000C000F7010002090261026102610224022C02AE
:1000D00035023E024702500211241FBECFEFD8E086
:1000E000DEBFCDBF0E9478000C9456040C94000033
:1000F000FFCF4F925F926F927F92AF92BF92CF925B
:10010000DF92EF92FF920F931F93CF93DF93CDB7C0
:10011000DEB729013A019B01AC01241935094609D2
:10012000570989899A89AB89BC89BC01CD016A19B3
:100130007B098C099D090E94E503A80197012419F8
:100140003509460957090E94F503CA01B9016A0D2C
:100150007B1D8C1D9D1DDF91CF911F910F91FF90F5
:10016000EF90DF90CF90BF90AF907F906F905F90B7
:100170004F90089501978C31910508F0CEC08C5CAA
:100180009F4FFC010C941404672B11F48AB101C039
:1001900084B18AB90895672B19F48AB1826002C0CC
:1001A00084B18D7F8AB90895672B19F48AB1846070
:1001B00002C084B18B7F8AB90895672B19F48AB184
:1001C000886002C084B1877F8AB90895672B19F4CB
:1001D0008AB1806102C084B18F7E8AB90895672B8D
:1001E00019F48AB1806202C084B18F7D8AB9089502
:1001F000672B19F48AB1806402C084B18F7B8AB9FD
:100200000895672B19F48AB1806802C084B18F7792
:100210008AB90895672B11F484B101C084B184B9FF
:100220000895672B19F48AB1826002C084B18D7F72
:1002300084B90895672B19F48AB1846002C084B12F
:100240008B7F84B90895672B19F48AB1886002C046
:1002500084B1877F84B90895672B19F48AB18061CE
:1002600002C084B18F7E84B90895672B19F48AB1D6
:10027000806202C084B18F7D84B90895672B19F420
:100280008AB1806402C084B18F7B84B90895672BE2
:1002900019F48AB1806802C084B18F7784B9089557
:1002A000672B11F487B102C084B18E7F87B908959E
:1002B000672B19F487B1826002C084B18D7F87B942
:1002C0000895672B19F487B1846002C084B18B7FD5
:1002D00087B90895672B19F487B1886002C084B18B
:1002E000877F87B90895672B19F487B1806102C0B1
:1002F00084B18F7E87B90895672B19F487B1806226
:1003000002C084B18F7D87B90895672B19F487B136
:10031000806402C084B18F7B87B9089501978C31C6
:10032000910508F0CEC0805B9F4FFC010C94140433
:10033000672B11F48AB101C084B18BB90895672B82
:1003400019F48AB1826002C084B18D7F8BB908959F
:10035000672B19F48AB1846002C084B18B7F8BB99A
:100360000895672B19F48AB1886002C084B1877F31
:100370008BB90895672B19F48AB1806102C084B1EA
:100380008F7E8BB90895672B19F48AB1806202C001
:1003900084B18F7D8BB90895672B19F48AB180647D
:1003A00002C084B18F7B8BB90895672B19F48AB191
:1003B000806802C084B18F778BB90895672B11F4E0
:1003C00084B101C084B185B90895672B19F48AB14D
:1003D000826002C084B18D7F85B90895672B19F4BE
:1003E0008AB1846002C084B18B7F85B90895672B80
:1003F00019F48AB1886002C084B1877F85B90895F5
:10040000672B19F48AB1806102C084B18F7E85B9EF
:100410000895672B19F48AB1806202C084B18F7D80
:1004200085B90895672B19F48AB1806402C084B13C
:100430008F7B85B90895672B19F48AB1806802C053
:1004400084B18F7785B90895672B11F487B102C005
:1004500084B18E7F88B90895672B19F487B18260C3
:1004600002C084B18D7F88B90895672B19F487B1D4
:10047000846002C084B18B7F88B90895672B19F41A
:1004800087B1886002C084B1877F88B90895672BDF
:1004900019F487B1806102C084B18F7E88B9089554
:1004A000672B19F487B1806202C084B18F7D88B94F
:1004B0000895672B19F487B1806402C084B18F7BE3
:1004C00088B908956F927F928F929F92AF92BF9258
:1004D000CF92DF92EF92FF920F931F93CF93DF9310
:1004E000EC014B015A01390161E070E0C4010E9446
:1004F000BA009982888261E070E0C5010E94BA006A
:10050000BB82AA8260E070E0C3010E94BA007D82D3
:100510006C8260E070E0C8010E94BA001F830E8305
:1005200060E070E0C7010E94BA00F986E88660E0EA
:1005300070E0C6010E94BA00DB86CA86DF91CF91C7
:100540001F910F91FF90EF90DF90CF90BF90AF90F1
:100550009F908F907F906F900895CF93DF93EC01E1
:1005600060E070E08C819D810E948E0160E070E00F
:100570008E819F810E948E0160E070E08885998560
:100580000E948E0160E070E08A859B850E948E014A
:10059000DF91CF910895CF93DF93EC010E94AD02DC
:1005A00061E070E08C819D810E948E0161E070E0CD
:1005B000888599850E948E01DF91CF910895CF9310
:1005C000DF93EC010E94AD0261E070E08E819F81BB
:1005D0000E948E0161E070E08A859B850E948E01F9
:1005E000DF91CF910895CF93DF93EC010E94AD028C
:1005F00061E070E0888599850E948E01DF91CF913E
:100600000895CF93DF93EC010E94AD0261E070E0AA
:100610008A859B850E948E01DF91CF910895CF93AB
:10062000DF93EC010E94AD0261E070E08C819D815E
:100630000E948E01DF91CF910895CF93DF93EC015B
:100640000E94AD0261E070E08E819F810E948E0168
:10065000DF91CF9108956F3F710539F030F02FEFA2
:1006600030E0FC01338322830895FC0173836283AD
:1006700008956F3F710539F030F02FEF30E0FC0145
:10068000318320830895FC0171836083089580FF86
:1006900003C094B5906894BD81FF03C094B5906287
:1006A00094BD84FF05C0E0E8F0E0908190689083FD
:1006B00085FF05C0E0E8F0E090819062908382FFC2
:1006C00005C0E0EBF0E090819068908383FF05C067
:1006D000E0EBF0E0808180628083089580FF03C0BA
:1006E00094B59F7794BD81FF03C094B59F7D94BD61
:1006F00084FF05C0E0E8F0E090819F77908385FF5C
:1007000005C0E0E8F0E090819F7D908382FF05C006
:10071000E0EBF0E090819F77908383FF05C0E0EBF2
:10072000F0E080818F7D8083089580FD67BD81FD2D
:1007300068BD84FF06C0262F30E0309389002093E7
:10074000880085FF06C0262F30E030938B00209371
:100750008A0082FD6093B30083FD6093B400089526
:1007600080FF0CC094B5936094BD95B5926095BD23
:100770001092B3001092B400559A569A84FF14C098
:10078000E0E8F0E0908193609083E1E8F0E0908110
:1007900092609083109289001092880010928B00D2
:1007A00010928A00219A229A82FF0EC0E0EBF0E0BC
:1007B000808183608083E1EBF0E0808182608083D0
:1007C00017BC18BC239A539A0895DB018F939F930B
:1007D0000E941A04BF91AF91A29F800D911DA39F0B
:1007E000900DB29F900D11240895052E97FB1EF4D5
:1007F00000940E940C0457FD07D00E94250407FCBA
:1008000003D04EF40C940C045095409530952195EE
:100810003F4F4F4F5F4F089590958095709561952C
:100820007F4F8F4F9F4F0895EE0FFF1F0590F4915C
:10083000E02D09940E944704A59F900DB49F900D50
:10084000A49F800D911D11240895A1E21A2EAA1BC8
:10085000BB1BFD010DC0AA1FBB1FEE1FFF1FA21770
:10086000B307E407F50720F0A21BB30BE40BF50B6D
:10087000661F771F881F991F1A9469F760957095F6
:10088000809590959B01AC01BD01CF010895A29F79
:10089000B001B39FC001A39F700D811D1124911D54
:1008A000B29F700D811D1124911D0895F894FFCF02
:00000001FF
