:100000000C946C000C9476000C9476000C947600A2
:100010000C9476000C9476000C9476000C94760088
:100020000C9476000C9476000C9476000C94760078
:100030000C9476000C9476000C9476000C94760068
:100040000C9476000C9476000C9476000C94760058
:100050000C9476000C9476000C9476000C94760048
:100060000C9476000C947600F2012C0135013E01CF
:1000700047015001FA01FA01AA01B30159016201D5
:100080006B0174017D0186018F019801A101FA01C4
:10009000FA01FA01BC01C501CE01D701E001E90175
:1000A000E10205020F02190223022D02EA02EA020E
:1000B00091029B02370241024B0255025F02690224
:1000C00073027D028702EA02EA02EA02A502AF0297
:1000D000B902C302CD02D70211241FBECFEFD8E070
:1000E000DEBFCDBF0E9478000C94E9040C940000A0
:1000F00060E070E089E090E00E94220160E070E042
:100100008AE090E00E94220160E070E08DE090E0E3
:100110000E94220160E070E08EE090E00E942201E7
:100120002E9A2FEF89E698E1215080409040E1F728
:1001300000C000002E982FEF89E698E12150804002
:100140009040E1F700C000002F9A2FEF89E698E178
:10015000215080409040E1F700C000002F982FEF21
:1001600089E698E1215080409040E1F700C000000E
:10017000289A2FEF89E698E1215080409040E1F7DE
:1001800000C0000028982FEF89E698E121508040B8
:100190009040E1F700C000005F9A2FEF89E698E1F8
:1001A000215080409040E1F700C000005F982FEFA1
:1001B00089E698E1215080409040E1F700C00000BE
:1001C00097CF4F925F926F927F92AF92BF92CF92F2
:1001D000DF92EF92FF920F931F93CF93DF93CDB7F0
:1001E000DEB729013A019B01AC0124193509460902
:1001F000570989899A89AB89BC89BC01CD016A19E3
:100200007B098C099D090E947804A8019701241993
:100210003509460957090E948804CA01B9016A0DC7
:100220007B1D8C1D9D1DDF91CF911F910F91FF9024
:10023000EF90DF90CF90BF90AF907F906F905F90E6
:100240004F90089501978C31910508F0D3C08C5CD4
:100250009F4FFC010C94A704672B19F48AB18160AD
:1002600002C08AB18E7F8AB90895672B19F48AB1CA
:10027000826002C08AB18D7F8AB90895672B19F414
:100280008AB1846002C08AB18B7F8AB90895672BD6
:1002900019F48AB1886002C08AB1877F8AB908954B
:1002A000672B19F48AB1806102C08AB18F7E8AB946
:1002B0000895672B19F48AB1806202C08AB18F7DDC
:1002C0008AB90895672B19F48AB1806402C08AB193
:1002D0008F7B8AB90895672B19F48AB1806802C0B0
:1002E0008AB18F778AB90895672B19F484B1816038
:1002F00002C084B18E7F84B90895672B19F484B14C
:10030000826002C084B18D7F84B90895672B19F48F
:1003100084B1846002C084B18B7F84B90895672B57
:1003200019F484B1886002C084B1877F84B90895CC
:10033000672B19F484B1806102C084B18F7E84B9C7
:100340000895672B19F484B1806202C084B18F7D57
:1003500084B90895672B19F484B1806402C084B114
:100360008F7B84B90895672B19F484B1806802C02B
:1003700084B18F7784B90895672B19F487B18160B0
:1003800002C087B18D7F87B90895672B19F487B1B3
:10039000826002C087B18D7F87B90895672B19F4F9
:1003A00087B1846002C087B18B7F87B90895672BBE
:1003B00019F487B1886002C087B1877F87B9089533
:1003C000672B19F487B1806102C087B18F7E87B92E
:1003D0000895672B19F487B1806202C087B18F7DC1
:1003E00087B90895672B19F487B1806402C087B17B
:1003F0008F7B87B9089501978C31910508F0EAC089
:10040000805B9F4FFC010C94A7046130710519F4C7
:100410008AB1816002C08AB18E7F8BB90895613044
:10042000710519F48AB1826002C08AB18D7F8BB9DF
:1004300008956130710519F48AB1846002C08AB1EF
:100440008B7F8BB908956130710519F48AB188608A
:1004500002C08AB1877F8BB908956130710519F4A4
:100460008AB1806102C08AB18F7E8BB908956130F4
:10047000710519F48AB1806202C08AB18F7D8BB98F
:1004800008956130710519F48AB1806402C08AB19F
:100490008F7B8BB908956130710519F48AB180683A
:1004A00002C08AB18F778BB908956130710519F454
:1004B00084B1816002C084B18E7F85B908956130B6
:1004C000710519F484B1826002C084B18D7F85B951
:1004D00008956130710519F484B1846002C084B15B
:1004E0008B7F85B908956130710519F484B18860F6
:1004F00002C084B1877F85B908956130710519F410
:1005000084B1806102C084B18F7E85B90895613065
:10051000710519F484B1806202C084B18F7D85B900
:1005200008956130710519F484B1806402C084B10A
:100530008F7B85B908956130710519F484B18068A5
:1005400002C084B18F7785B908956130710519F4BF
:1005500087B1816002C087B18D7F88B9089561300D
:10056000710519F487B1826002C087B18D7F88B9A7
:1005700008956130710519F487B1846002C087B1B4
:100580008B7F88B908956130710519F487B188604F
:1005900002C087B1877F88B908956130710519F469
:1005A00087B1806102C087B18F7E88B908956130BC
:1005B000710519F487B1806202C087B18F7D88B957
:1005C00008956130710519F487B1806402C087B164
:1005D0008F7B88B908956F927F928F929F92AF928E
:1005E000BF92CF92DF92EF92FF920F931F93CF9320
:1005F000DF93EC014B015A01390161E070E0C40165
:100600000E9422019982888261E070E0C5010E9407
:100610002201BB82AA8260E070E0C3010E94220135
:100620007D826C8260E070E0C8010E9422011F831D
:100630000E8360E070E0C7010E942201F986E8861F
:1006400060E070E0C6010E942201DB86CA8661E09C
:1006500070E0C4010E94FB0161E070E0C5010E94EE
:10066000FB01DF91CF911F910F91FF90EF90DF90F1
:10067000CF90BF90AF909F908F907F906F90089594
:10068000CF93DF93EC0160E070E08C819D810E944C
:10069000FB0160E070E08E819F810E94FB0160E0C1
:1006A00070E0888599850E94FB0160E070E08A8592
:1006B0009B850E94FB01DF91CF910895CF93DF933B
:1006C000EC010E94400361E070E08C819D810E94FA
:1006D000FB0161E070E0888599850E94FB01DF9154
:1006E000CF910895CF93DF93EC010E94400361E026
:1006F00070E08E819F810E94FB0161E070E08A853D
:100700009B850E94FB01DF91CF910895CF93DF93EA
:10071000EC010E94400361E070E0888599850E94A9
:10072000FB01DF91CF910895CF93DF93EC010E94FD
:10073000400361E070E08A859B850E94FB01DF91A8
:10074000CF910895CF93DF93EC010E94400361E0C5
:1007500070E08C819D810E94FB01DF91CF91089513
:10076000CF93DF93EC010E94400361E070E08E8143
:100770009F810E94FB01DF91CF9108956F3F71052A
:1007800039F030F02FEF30E0FC01358724870895F1
:10079000FC017587648708956F3F710539F030F06B
:1007A0002FEF30E0FC01378726870895FC0177871B
:1007B0006687089580FF03C094B5906894BD81FF5B
:1007C00003C094B5906294BD84FF05C0E0E8F0E0FA
:1007D00090819068908385FF05C0E0E8F0E090810B
:1007E0009062908382FF05C0E0EBF0E0908190681A
:1007F000908383FF05C0E0EBF0E08081806280831E
:10080000089580FF03C094B59F7794BD81FF03C016
:1008100094B59F7D94BD84FF05C0E0E8F0E0908131
:100820009F77908385FF05C0E0E8F0E090819F7D91
:10083000908382FF05C0E0EBF0E090819F7790838A
:1008400083FF05C0E0EBF0E080818F7D8083089519
:1008500080FD67BD81FD68BD84FF06C0262F30E0A6
:10086000309389002093880085FF06C0262F30E052
:1008700030938B0020938A0082FD6093B30083FD48
:100880006093B400089580FF0CC094B5936094BD4C
:1008900095B5926095BD1092B3001092B400559A30
:1008A000569A84FF14C0E0E8F0E090819360908352
:1008B000E1E8F0E0908192609083109289001092BC
:1008C000880010928B0010928A00219A229A82FF4F
:1008D0000EC0E0EBF0E0808183608083E1EBF0E02C
:1008E00080818260808317BC18BC239A539A089534
:1008F000DB018F939F930E94AD04BF91AF91A29FA4
:10090000800D911DA39F900DB29F900D112408950D
:10091000052E97FB1EF400940E949F0457FD07D0FC
:100920000E94B80407FC03D04EF40C949F04509529
:100930004095309521953F4F4F4F5F4F08959095CB
:100940008095709561957F4F8F4F9F4F0895EE0F63
:10095000FF1F0590F491E02D09940E94DA04A59FF1
:10096000900DB49F900DA49F800D911D11240895AA
:10097000A1E21A2EAA1BBB1BFD010DC0AA1FBB1FA3
:10098000EE1FFF1FA217B307E407F50720F0A21B15
:10099000B30BE40BF50B661F771F881F991F1A9482
:1009A00069F760957095809590959B01AC01BD01AC
:1009B000CF010895A29FB001B39FC001A39F700D06
:1009C000811D1124911DB29F700D811D1124911D57
:0609D0000895F894FFCF2A
:00000001FF
