:100000000C946C000C9476000C9476000C947600A2
:100010000C9476000C9476000C9476000C94760088
:100020000C9476000C9476000C9476000C94760078
:100030000C9476000C9476000C9476000C94760068
:100040000C9476000C9476000C9476000C94760058
:100050000C9476000C9476000C9476000C94760048
:100060000C9476000C947600C001FA0003010C0198
:1000700015011E01C801C801780181012701300165
:10008000390142014B0154015D0166016F01C80154
:10009000C801C8018A0193019C01A501AE01B70105
:1000A000AF02D301DD01E701F101FB01B802B802A3
:1000B0005F02690205020F02190223022D023702B4
:1000C00041024B025502B802B802B80273027D0227
:1000D000870291029B02A50211241FBECFEFD8E038
:1000E000DEBFCDBF0E9478000C94B7040C940000D2
:1000F00060E070E089E090E00E94F00060E070E075
:100100008AE090E00E94F00061E070E089E090E019
:100110000E94C90161E070E08AE090E00E94C9019C
:100120002FEF89E698E1215080409040E1F700C030
:10013000000060E070E089E090E00E94C90160E0AA
:1001400070E08AE090E00E94C9012FEF89E698E113
:10015000215080409040E1F700C00000D5CF4F9281
:100160005F926F927F92AF92BF92CF92DF92EF92A7
:10017000FF920F931F93CF93DF93CDB7DEB7290183
:100180003A019B01AC0124193509460957098989AF
:100190009A89AB89BC89BC01CD016A197B098C099C
:1001A0009D090E944604A8019701241935094609B2
:1001B00057090E945604CA01B9016A0D7B1D8C1DA6
:1001C0009D1DDF91CF911F910F91FF90EF90DF90D8
:1001D000CF90BF90AF907F906F905F904F900895B9
:1001E00001978C31910508F0D3C08C5C9F4FFC01C6
:1001F0000C947504672B19F48AB1816002C084B134
:100200008E7F8AB90895672B19F48AB1826002C083
:1002100084B18D7F8AB90895672B19F48AB18460FF
:1002200002C084B18B7F8AB90895672B19F48AB113
:10023000886002C084B1877F8AB90895672B19F45A
:100240008AB1806102C084B18F7E8AB90895672B1C
:1002500019F48AB1806202C084B18F7D8AB9089591
:10026000672B19F48AB1806402C084B18F7B8AB98C
:100270000895672B19F48AB1806802C084B18F7722
:100280008AB90895672B19F484B1816002C084B1E2
:100290008E7F84B90895672B19F48AB1826002C0F9
:1002A00084B18D7F84B90895672B19F48AB1846075
:1002B00002C084B18B7F84B90895672B19F48AB189
:1002C000886002C084B1877F84B90895672B19F4D0
:1002D0008AB1806102C084B18F7E84B90895672B92
:1002E00019F48AB1806202C084B18F7D84B9089507
:1002F000672B19F48AB1806402C084B18F7B84B902
:100300000895672B19F48AB1806802C084B18F7791
:1003100084B90895672B19F487B1816002C084B154
:100320008D7F87B90895672B19F487B1826002C069
:1003300084B18D7F87B90895672B19F487B18460E4
:1003400002C084B18B7F87B90895672B19F487B1F8
:10035000886002C084B1877F87B90895672B19F43C
:1003600087B1806102C084B18F7E87B90895672B01
:1003700019F487B1806202C084B18F7D87B9089576
:10038000672B19F487B1806402C084B18F7B87B971
:10039000089501978C31910508F0EAC0805B9F4F6A
:1003A000FC010C9475046130710519F48AB1816007
:1003B00002C084B18E7F8BB908956130710519F444
:1003C0008AB1826002C084B18D7F8BB9089561309B
:1003D000710519F48AB1846002C084B18B7F8BB936
:1003E00008956130710519F48AB1886002C084B142
:1003F000877F8BB908956130710519F48AB18061E6
:1004000002C084B18F7E8BB908956130710519F4F3
:100410008AB1806202C084B18F7D8BB9089561304A
:10042000710519F48AB1806402C084B18F7B8BB9E5
:1004300008956130710519F48AB1806802C084B1F1
:100440008F778BB908956130710519F484B181609B
:1004500002C084B18E7F85B908956130710519F4A9
:100460008AB1826002C084B18D7F85B90895613000
:10047000710519F48AB1846002C084B18B7F85B99B
:1004800008956130710519F48AB1886002C084B1A1
:10049000877F85B908956130710519F48AB180614B
:1004A00002C084B18F7E85B908956130710519F459
:1004B0008AB1806202C084B18F7D85B908956130B0
:1004C000710519F48AB1806402C084B18F7B85B94B
:1004D00008956130710519F48AB1806802C084B151
:1004E0008F7785B908956130710519F487B18160FE
:1004F00002C084B18D7F88B908956130710519F407
:1005000087B1826002C084B18D7F88B9089561305F
:10051000710519F487B1846002C084B18B7F88B9FA
:1005200008956130710519F487B1886002C084B103
:10053000877F88B908956130710519F487B18061AA
:1005400002C084B18F7E88B908956130710519F4B5
:1005500087B1806202C084B18F7D88B9089561300F
:10056000710519F487B1806402C084B18F7B88B9AA
:1005700008956F927F928F929F92AF92BF92CF9287
:10058000DF92EF92FF920F931F93CF93DF93EC01D3
:100590004B015A01390161E070E0C4010E94F00092
:1005A0009982888261E070E0C5010E94F000BB8200
:1005B000AA8260E070E0C3010E94F0007D826C823C
:1005C00060E070E0C8010E94F0001F830E8360E0CD
:1005D00070E0C7010E94F000F986E88660E070E0F4
:1005E000C6010E94F000DB86CA8661E070E0C401AB
:1005F0000E94C90161E070E0C5010E94C901DF915C
:10060000CF911F910F91FF90EF90DF90CF90BF900F
:10061000AF909F908F907F906F900895CF93DF93CE
:10062000EC0160E070E08C819D810E94C90160E076
:1006300070E08E819F810E94C90160E070E0888532
:1006400099850E94C90160E070E08A859B850E94BF
:10065000C901DF91CF910895CF93DF93EC010E9400
:100660000E0361E070E08C819D810E94C90161E010
:1006700070E0888599850E94C901DF91CF91089526
:10068000CF93DF93EC010E940E0361E070E08E8156
:100690009F810E94C90161E070E08A859B850E946C
:1006A000C901DF91CF910895CF93DF93EC010E94B0
:1006B0000E0361E070E0888599850E94C901DF9191
:1006C000CF910895CF93DF93EC010E940E0361E078
:1006D00070E08A859B850E94C901DF91CF910895C2
:1006E000CF93DF93EC010E940E0361E070E08C81F8
:1006F0009D810E94C901DF91CF910895CF93DF932F
:10070000EC010E940E0361E070E08E819F810E94E7
:10071000C901DF91CF9108956F3F710539F030F035
:100720002FEF30E0FC01358724870895FC017587A1
:10073000648708956F3F710539F030F02FEF30E096
:10074000FC01378726870895FC017787668708951F
:1007500080FF03C094B5906894BD81FF03C094B539
:10076000906294BD84FF05C0E0E8F0E0908190685D
:10077000908385FF05C0E0E8F0E09081906290836F
:1007800082FF05C0E0EBF0E090819068908383FFEA
:1007900005C0E0EBF0E0808180628083089580FFF7
:1007A00003C094B59F7794BD81FF03C094B59F7D2E
:1007B00094BD84FF05C0E0E8F0E090819F779083CE
:1007C00085FF05C0E0E8F0E090819F7D908382FF87
:1007D00005C0E0EBF0E090819F77908383FF05C038
:1007E000E0EBF0E080818F7D8083089580FD67BD20
:1007F00081FD68BD84FF06C0262F30E0309389005C
:100800002093880085FF06C0262F30E030938B00B0
:1008100020938A0082FD6093B30083FD6093B4004F
:10082000089580FF0CC094B5936094BD95B5926017
:1008300095BD1092B3001092B400559A569A84FF59
:1008400014C0E0E8F0E0908193609083E1E8F0E08C
:10085000908192609083109289001092880010928B
:100860008B0010928A00219A229A82FF0EC0E0EB40
:10087000F0E0808183608083E1EBF0E08081826042
:10088000808317BC18BC239A539A0895DB018F9379
:100890009F930E947B04BF91AF91A29F800D911DF9
:1008A000A39F900DB29F900D11240895052E97FBE4
:1008B0001EF400940E946D0457FD07D00E94860428
:1008C00007FC03D04EF40C946D0450954095309580
:1008D00021953F4F4F4F5F4F0895909580957095AC
:1008E00061957F4F8F4F9F4F0895EE0FFF1F05902B
:1008F000F491E02D09940E94A804A59F900DB49F47
:10090000900DA49F800D911D11240895A1E21A2E2F
:10091000AA1BBB1BFD010DC0AA1FBB1FEE1FFF1FA3
:10092000A217B307E407F50720F0A21BB30BE40BF3
:10093000F50B661F771F881F991F1A9469F760953A
:100940007095809590959B01AC01BD01CF010895F4
:10095000A29FB001B39FC001A39F700D811D112400
:10096000911DB29F700D811D1124911D0895F89461
:02097000FFCFB7
:00000001FF
