:100000000C946C000C9481000C9481000C94810081
:100010000C9481000C9481000C9481000C9481005C
:100020000C9481000C9481000C9481000C9481004C
:100030000C9481000C9481000C9481000C9481003C
:100040000C9481000C9481000C9481000C9481002C
:100050000C9481000C9481000C9481000C9481001C
:100060000C9481000C948100FD013701400149018D
:1000700052015B0105020502B501BE0164016D017B
:1000800076017F01880191019A01A301AC0105026B
:1000900005020502C701D001D901E201EB01F4011B
:1000A000EC0210021A0224022E023802F502F502B6
:1000B0009C02A60242024C02560260026A027402CC
:1000C0007E0288029202F502F502F502B002BA023F
:1000D000C402CE02D802E20211241FBECFEFD8E044
:1000E000DEBFCDBF11E0A0E0B1E0E2EFF9E002C079
:1000F00005900D92A630B107D9F70E9483000C94A9
:10010000F7040C940000CF93DF93CDB7DEB762976E
:100110000FB6F894DEBF0FBECDBF0F2EFEE0CF2E80
:10012000D12CF02D0F2EFDE0EF2EF12CF02D0AE05A
:1001300010E029E030E04FE050E06BE070E0CE01ED
:1001400001960E941403CE0141960E94CD00BE018B
:100150006F5F7F4FCE0141960E94CE0060E071E05C
:10016000CE0141960E94D2002FEF89E698E12150FE
:1001700080409040E1F700C0000063E071E0CE01F4
:1001800041960E94D2002FEF89E698E121508040ED
:100190009040E1F700C00000E1CF0895FC017183B9
:1001A00060830895FC01DB019C91963649F4119619
:1001B0008C91873781F4808191810E946C0308952E
:1001C000923649F4DB0111968C91873721F48081B6
:1001D00091810E94800308954F925F926F927F9267
:1001E000AF92BF92CF92DF92EF92FF920F931F9345
:1001F000CF93DF93CDB7DEB729013A019B01AC0164
:10020000241935094609570989899A89AB89BC8916
:10021000BC01CD016A197B098C099D090E948604E5
:10022000A801970124193509460957090E94960427
:10023000CA01B9016A0D7B1D8C1D9D1DDF91CF91F7
:100240001F910F91FF90EF90DF90CF90BF90AF90F4
:100250007F906F905F904F90089501978C3191053A
:1002600008F0D3C08C5C9F4FFC010C94B504672B45
:1002700019F48AB1816002C08AB18E7F8AB908956B
:10028000672B19F48AB1826002C08AB18D7F8AB966
:100290000895672B19F48AB1846002C08AB18B7FFC
:1002A0008AB90895672B19F48AB1886002C08AB1AF
:1002B000877F8AB90895672B19F48AB1806102C0DB
:1002C0008AB18F7E8AB90895672B19F48AB180624A
:1002D00002C08AB18F7D8AB90895672B19F48AB15B
:1002E000806402C08AB18F7B8AB90895672B19F4A4
:1002F0008AB1806802C08AB18F778AB90895672B66
:1003000019F484B1816002C084B18E7F84B90895EC
:10031000672B19F484B1826002C084B18D7F84B9E7
:100320000895672B19F484B1846002C084B18B7F77
:1003300084B90895672B19F484B1886002C084B130
:10034000877F84B90895672B19F484B1806102C056
:1003500084B18F7E84B90895672B19F484B18062CB
:1003600002C084B18F7D84B90895672B19F484B1DC
:10037000806402C084B18F7B84B90895672B19F41F
:1003800084B1806802C084B18F7784B90895672BE7
:1003900019F487B1816002C087B18D7F87B9089554
:1003A000672B19F487B1826002C087B18D7F87B94E
:1003B0000895672B19F487B1846002C087B18B7FE1
:1003C00087B90895672B19F487B1886002C087B197
:1003D000877F87B90895672B19F487B1806102C0C0
:1003E00087B18F7E87B90895672B19F487B1806232
:1003F00002C087B18F7D87B90895672B19F487B143
:10040000806402C087B18F7B87B9089501978C31D2
:10041000910508F0EAC0805B9F4FFC010C94B50485
:100420006130710519F48BB1816002C08BB18E7F90
:100430008BB908956130710519F48BB1826002C0E7
:100440008BB18D7F8BB908956130710519F48BB133
:10045000846002C08BB18B7F8BB9089561307105C8
:1004600019F48BB1886002C08BB1877F8BB9089576
:100470006130710519F48BB1806102C08BB18F7E40
:100480008BB908956130710519F48BB1806202C097
:100490008BB18F7D8BB908956130710519F48BB1E3
:1004A000806402C08BB18F7B8BB908956130710578
:1004B00019F48BB1806802C08BB18F778BB9089526
:1004C0006130710519F485B1816002C085B18E7FFC
:1004D00085B908956130710519F485B1826002C053
:1004E00085B18D7F85B908956130710519F485B1A5
:1004F000846002C085B18B7F85B908956130710534
:1005000019F485B1886002C085B1877F85B90895E7
:100510006130710519F485B1806102C085B18F7EAB
:1005200085B908956130710519F485B1806202C002
:1005300085B18F7D85B908956130710519F485B154
:10054000806402C085B18F7B85B9089561307105E3
:1005500019F485B1806802C085B18F7785B9089597
:100560006130710519F488B1816002C088B18D7F56
:1005700088B908956130710519F488B1826002C0AC
:1005800088B18D7F88B908956130710519F488B1FB
:10059000846002C088B18B7F88B90895613071058D
:1005A00019F488B1886002C088B1877F88B908953E
:1005B0006130710519F488B1806102C088B18F7E05
:1005C00088B908956130710519F488B1806202C05C
:1005D00088B18F7D88B908956130710519F488B1AB
:1005E000806402C088B18F7B88B90895CF93DF9370
:1005F000EC0160E070E08C819D810E94060260E069
:1006000070E08E819F810E94060260E070E0888524
:1006100099850E94060260E070E08A859B850E94B1
:100620000602DF91CF9108956F927F928F929F92F1
:10063000AF92BF92CF92DF92EF92FF920F931F93F0
:10064000CF93DF93EC014B015A01390161E070E077
:10065000C4010E942D019982888261E070E0C50189
:100660000E942D01BB82AA8260E070E0C3010E945B
:100670002D017D826C8260E070E0C8010E942D0136
:100680001F830E8360E070E0C7010E942D01F98690
:10069000E88660E070E0C6010E942D01DB86CA8614
:1006A00061E070E0C4010E94060261E070E0C501F3
:1006B0000E940602CE010E94F602DF91CF911F91A7
:1006C0000F91FF90EF90DF90CF90BF90AF909F90F1
:1006D0008F907F906F900895CF93DF93EC010E94ED
:1006E000F60261E070E08C819D810E94060261E06B
:1006F00070E0888599850E940602DF91CF91089568
:10070000CF93DF93EC010E94F60261E070E08E81EE
:100710009F810E94060261E070E08A859B850E94AD
:100720000602DF91CF910895CF93DF93EC010E94F1
:10073000F60261E070E0888599850E940602DF91EB
:10074000CF910895CF93DF93EC010E94F60261E010
:1007500070E08A859B850E940602DF91CF91089503
:10076000CF93DF93EC010E94F60261E070E08C8190
:100770009D810E940602DF91CF910895CF93DF9370
:10078000EC010E94F60261E070E08E819F810E9480
:100790000602DF91CF9108956F3F710539F030F077
:1007A0002FEF30E0FC01358724870895FC01758721
:1007B000648708956F3F710539F030F02FEF30E016
:1007C000FC01378726870895FC017787668708959F
:1007D00080FF03C094B5906894BD81FF03C094B5B9
:1007E000906294BD84FF05C0E0E8F0E090819068DD
:1007F000908385FF05C0E0E8F0E0908190629083EF
:1008000082FF05C0E0EBF0E090819068908383FF69
:1008100005C0E0EBF0E0808180628083089580FF76
:1008200003C094B59F7794BD81FF03C094B59F7DAD
:1008300094BD84FF05C0E0E8F0E090819F7790834D
:1008400085FF05C0E0E8F0E090819F7D908382FF06
:1008500005C0E0EBF0E090819F77908383FF05C0B7
:10086000E0EBF0E080818F7D8083089580FD67BD9F
:1008700081FD68BD84FF06C0262F30E030938900DB
:100880002093880085FF06C0262F30E030938B0030
:1008900020938A0082FD6093B30083FD6093B400CF
:1008A000089580FF0CC094B5936094BD95B5926097
:1008B00095BD1092B3001092B400559A569A84FFD9
:1008C00014C0E0E8F0E0908193609083E1E8F0E00C
:1008D000908192609083109289001092880010920B
:1008E0008B0010928A00219A229A82FF0EC0E0EBC0
:1008F000F0E0808183608083E1EBF0E080818260C2
:10090000808317BC18BC239A539A0895DB018F93F8
:100910009F930E94BB04BF91AF91A29F800D911D38
:10092000A39F900DB29F900D11240895052E97FB63
:100930001EF400940E94AD0457FD07D00E94C60427
:1009400007FC03D04EF40C94AD04509540953095BF
:1009500021953F4F4F4F5F4F08959095809570952B
:1009600061957F4F8F4F9F4F0895EE0FFF1F0590AA
:10097000F491E02D09940E94E804A59F900DB49F86
:10098000900DA49F800D911D11240895A1E21A2EAF
:10099000AA1BBB1BFD010DC0AA1FBB1FEE1FFF1F23
:1009A000A217B307E407F50720F0A21BB30BE40B73
:1009B000F50B661F771F881F991F1A9469F76095BA
:1009C0007095809590959B01AC01BD01CF01089574
:1009D000A29FB001B39FC001A39F700D811D112480
:1009E000911DB29F700D811D1124911D0895F894E1
:0209F000FFCF37
:0609F20066770062770049
:00000001FF
